:020000040800F2
:10000000D8B9002045010008655B0008A548000834
:10001000615B00081B110008BD9F00080000000084
:1000200000000000000000000000000059990008D6
:100030009112000800000000AB0A0008A57100083A
:100040005F0100085F0100085F0100085F01000810
:100050005F0100085F0100085F0100085F01000800
:100060005F0100085F0100085F0100085F010008F0
:100070005F0100085F0100085F0100085F010008E0
:100080005F0100085F0100085F0100085F010008D0
:100090005F0100085F0100085F0100085F010008C0
:1000A0005F0100085F0100085F0100085F010008B0
:1000B0005F0100085F0100085F0100085F010008A0
:1000C0005F0100085F0100085F0100085F01000890
:1000D0005F0100085F0100085F0100085F01000880
:1000E0005F0100085F0100085F0100085F01000870
:1000F0005F0100085F0100085F0100085F01000860
:100100005F0100085F0100085F0100085F0100084F
:100110005F0100085F0100085F0100085F0100083F
:100120005F0100085F0100085F0100085F0100082F
:10013000DFF80CD000F06AFC00480047AD0301086E
:10014000D8B900200648804706480047FEE7FEE78A
:10015000FEE7FEE7FEE7FEE7FEE7FEE7FEE7FEE777
:100160000D9C00083101000872B6704762B67047F6
:10017000EFF3108072B6704780F31088704730BF7D
:10018000704720BF7047B0FA80F0704790FAA0F037
:10019000B0FA80F0704790FAA0F070472DE9F05F58
:1001A0000546002092469B468846064681464024E6
:1001B0001BE0284641464746224600F0CEFA534609
:1001C0005A46C01A914110D311461846224600F0F3
:1001D000B5FA2D1A67EB01084F462246012000218F
:1001E00000F0ACFA17EB00094E41201EA4F1010407
:1001F000DFDC484631462A464346BDE8F09F000012
:100200000649074A0868504343F23902104408601F
:100210004008704701490860704700004C04002006
:100220006D4EC64110B5431A934209D283188818FF
:1002300003E010F8011D03F8011D521EF9D210BD94
:1002400040EA01039B0703D009E008C9121F08C058
:10025000042AFAD203E011F8013B00F8013B521ED8
:10026000F9D210BDD2B201E000F8012B491EFBD239
:1002700070470022F6E710B513460A4604461946B1
:10028000FFF7F0FF204610BD30B5044600200346BE
:1002900000E05B1C934203D2E05CCD5C401BF8D0D5
:1002A00030BDF0B480EA0102D40F4200B2EB410F3E
:1002B00002D20246084611464A0042D0C30DDDB2C2
:1002C000C1F3C752AD1A202D35DAC1F3160141F43E
:1002D000000204B15242C5F1200602FA06F12A4199
:1002E0001044B3EBD05F23D0C4B1012DA0EBC350B9
:1002F00009DCF0BC4FF0004202EAC352DBB200F569
:10030000000000F055BA400000F1807000EBC350CF
:10031000A0F1807040EAD170490009E0490841EA43
:10032000C071A0EBC35000F50000400800EBC350C3
:10033000F0BC00F034BA6142012202EB4101001B23
:10034000F6E7F0BC704781F00041AAE780F000407A
:10035000A7E780EA010210B502F00043400022D076
:100360004A001FD0010E01EB1261C0F35600C2F328
:10037000560240F4000042F40002A0FB02200004F8
:100380007F39140400D0401C50EA124001D44000D0
:10039000491EC2B20C0604EBD010401C4008802A53
:1003A00002D003E0002010BD20F00100002900DA97
:1003B0000020184310BD30B480EA010202F000456D
:1003C00030F0004221F0004013D090B1C30DD40DA5
:1003D000C2F31601C0F31600E41A41F4000140F420
:1003E00000027D34914201D3641C00E04900002CDE
:1003F00002DA30BC002070474FF400000023914225
:1004000001D3891A034340084FEA4101F7D151B1A2
:10041000914202D14FF0004105E002D24FF00101BC
:1004200001E06FF0010103EBC450284430BC00F040
:10043000B6B92DE9FE4F804681EA0300C00F0C4695
:10044000009021F0004123F00045B8EB0200A941E3
:1004500005D24046214690461C460B46024623F0F4
:100460000040104347D0270DC7F30A00C3F30A51D9
:100470000290401A019040286BDAC3F3130040F455
:10048000801B0098924620B10023D2EB030A63EB55
:100490000B0B01985946C0F14002504600F04EF94E
:1004A00006460D4650465946019A00F066F910EB93
:1004B00008006141002487EA115284EAE7731A4375
:1004C00040D0009A62B3019A012A4FEA075215DC24
:1004D000001B61EB02014FF0004202EA0752CDE936
:1004E0000042001C41F5801132462B4600F09DF978
:1004F00003B0BDE8F08F40462146F9E7001B61EBF1
:100500000201001C41F5801300185B412018A2F580
:10051000001747EB030140EAD570B6196D4111E0B1
:100520006D084FEA360645EAC0754FEA0752001BD0
:1005300061EB0201001C41F5801149084FEA3000CF
:100540000019514132462B4603B0BDE8F04F00F090
:100550005DB90098012240000023D0EB020263EB5A
:10056000E073009821464FEAE074B8EB000061EBBD
:100570000401E9E783F000435BE781F0004158E7BD
:100580002DE9F04D81EA030404F0004B21F0004511
:1005900014464FF0000A23F0004150EA050220D033
:1005A00054EA01021DD0C5F30A570246C5F31303EE
:1005B000C1F31300C1F30A5640F4801543F48013CD
:1005C000A7EB0608101BD64608F2FD3873EB0500B2
:1005D00002D308F1010801E092185B41B8F1000F65
:1005E00003DA00200146BDE8F08D00204FF48011B1
:1005F000064684460EE0171B73EB050705D3121B56
:1006000063EB050306434CEA010C49084FEA30004E
:1006100092185B4150EA0107EDD152EA030012D073
:1006200082EA040083EA0501084305D0101BAB41B0
:1006300006D20122002306E000224FF0004302E030
:100640006FF0010253101AEB06004CEB085110EB4F
:100650000A0041EB0B01BDE8F04D00F0D7B8C10F27
:1006600080EAE0700844CA079623002100F0A0B891
:1006700096230022114600F09BB800F0004220F0C3
:100680000040C10DC0F3160040F400007F2901DADC
:1006900000207047962903DCC1F19601C84001E0B3
:1006A00096398840002AF4D04042704770B5C1F3B3
:1006B0000A5201F000450024C1F3130140F2FF3358
:1006C00041F480119A4201DA002070BD40F23343B8
:1006D0009A42A2F2334203DC524200F03EF800E0BC
:1006E00090402C43F1D0404270BD00F0004230F009
:1006F00000400AD0C10D01F56071C0F3160042EA56
:100700000151C2084007114370470020014670475D
:1007100030B50B46014600202022012409E021FAD1
:1007200002F59D4205D303FA02F5491B04FA02F5CE
:100730002844151EA2F10102F1DC30BD202A04DBA1
:10074000203A00FA02F1002070479140C2F12003E4
:1007500020FA03F3194390407047202A04DB203A23
:1007600021FA02F00021704721FA02F3D040C2F1D1
:1007700020029140084319467047202A06DBCB1718
:10078000203A41FA02F043EAE07306E041FA02F34C
:10079000D040C2F120029140084319467047002919
:1007A000A8BF7047401C490008BF20F001007047F7
:1007B00010B4B0FA80FC00FA0CF050EA010404BF57
:1007C00010BC704749B1CCF1200421FA04F411FAAD
:1007D0000CF118BF012121430843A3EB0C01CB1DF1
:1007E0004FEA00614FEA102042BF002010BC704762
:1007F00000EBC35010440029A4BF10BC7047401C3C
:10080000490008BF20F0010010BC704710B5141E4D
:1008100073F1000408DA401C41F1000192185B41B9
:100820001A4301D120F0010010BD2DE9F04D924690
:100830009B4611B1B1FA81F202E0B0FA80F22032A7
:100840009046FFF77BFF04460F4640EA0A0041EA64
:100850000B0153465A46084313D0114653EA010090
:1008600019D0C8F140025046FFF777FF05460E4603
:10087000504659464246FFF761FF084305D0012024
:1008800004E020463946BDE8F08D0020054346EAE5
:10089000E0762C4337430A986305E40AA0EB08008E
:1008A0000022FD0A44EA47540A3002D500200146DE
:1008B000E9E7010510196941DDE9084500196941B9
:1008C000BDE8F04DA2E72DE9FE4F81EA030404F0F4
:1008D000004421F0004100944FF0000B23F000434E
:1008E00050EA01045ED052EA03045BD0C3F30A5419
:1008F000C1F30A552C44A4F2F3340194A0FB025432
:10090000C1F3130141F48011C3F3130343F48013C3
:1009100001FB024400FB034E840A970A44EA815417
:1009200047EA8357A4FB076802958D0A05FB0785F4
:100930004FEA932C04FB0C542705029D4FEA0658FE
:1009400047EA1637B5EB08056EEB070C870E920EDB
:1009500047EA811742EA8312A7FB0201B6EB0B01BB
:1009600064EB00042B0D43EA0C335E1844EB1C507F
:10097000DA465146E7FB0201C5F313044FEA0B3395
:1009800043EA14534FEA0432019C43EA0603A4F1FC
:100990000C040294009CCDE900B4FFF746FF03B0BD
:1009A000BDE8F08F00200146F9E7C1F30A52C1F318
:1009B000130140F2FF3341F480119A4202DA002021
:1009C0000146704740F233439A42A2F2334202DCBE
:1009D0005242FFF7C2BEFFF7B1BE000030B5041EA1
:1009E00071F1000404DB4FF00044404264EB01016C
:1009F000141E73F1000405DB1C464FF00043524205
:100A000063EB0403994208BF904230BD064C074D8A
:100A100006E0E06840F0010394E8070098471034CE
:100A2000AC42F6D3FFF788FB14170108341701080E
:100A300070B58C1810F8015B15F0070301D110F8A0
:100A4000013B2A1106D110F8012B03E010F8016BCD
:100A500001F8016B5B1EF9D12B0705D40023521E50
:100A60000DD401F8013BFAE710F8013BCB1A921CB8
:100A700003E013F8015B01F8015B521EF9D5A142B6
:100A8000D8D3002070BD000018484FF0FF0101705E
:100A9000002080F309881648016881F3088815480A
:100AA0004FF08051016062B6FEE772B6EFF3098045
:100AB00028B1203880E8F00F0F490968086000B5B8
:100AC0000E4880475DF804EB0D480E490A78027025
:100AD00009480D490A680260106890E8F00F20305C
:100AE00080F309884EF0040E62B6704722ED00E0F4
:100AF0004802002004ED00E040020020AD6B000839
:100B0000CE010020CF01002044020020002800DC9C
:100B10004042704710B58AB0002006AB09AA0321F5
:100B2000059007C33323084CCDE901434FF400720D
:100B3000CDE9032000910346044A05A1A4F5F06025
:100B400005F094FC0AB010BD680D0020119A000851
:100B50004755492042617365205465737400000055
:100B60001FB500250295DFF8D480354C03AE012275
:100B700002AB1146404604F04EF900283DD0002358
:100B80001A4619462F48009605F044FA0746FFF723
:100B9000EFFA814600F026FB2078401CC2B222709A
:100BA000012A01D107F0DCF900F02EFB4846FFF7DF
:100BB000E3FABDF80C204AB3A2F5C240B03802D126
:100BC00021A00EF07DFEFFF7D3FA074600F00AFBE6
:100BD0002078401EC0B22070E8B100F015FB384606
:100BE000FFF7CAFA03A9254805F0B6FF24480560B7
:100BF000BDF80C10234806F013FA0022CDE9005688
:100C000014231146104606F07FF8B0E739461EA0BF
:100C10000EF056FED7E707F0B1F92848008838B142
:100C200000F0F2FA3846FFF7A7FA07F075F9D9E7AE
:100C300000F0EAFA3846FFF79FFAD3E700080140D0
:100C4000E80100203C0900200D0A6B657931B1BB39
:100C5000B5A5BBF7A3BAB2BBBAC3D2E2CBBCA3ACB7
:100C6000CFD6D4DACDA3B3B5B3A1D2D1C2FAA3AC57
:100C7000C7EBB5C8B4FDA3A100000000E805002043
:100C800018000020080900200D0A4B455931B1BB5E
:100C9000B5A5BBF7A3BAB3C9B9A6C9EAC7EBB5BD39
:100CA000CDA3B3B5CEBBA3ACCAA3CFC22564B8F65F
:100CB000CDA3B3B5CEBBA1A300000000AC010020C2
:100CC0001FB500250295DFF8C080304C4FF4005767
:100CD00003AE02AB01223946404604F09CF80028DE
:100CE00036D003AA4FF40071294805F05BFA81461B
:100CF000FFF73EFA824600F075FA2078401CC0B239
:100D00002070012801D107F02BF900F07DFA504640
:100D1000FFF732FA49461FA00EF0D2FDFFF728FA7E
:100D2000814600F05FFA2078401EC0B22070C0B14A
:100D300000F06AFA4846FFF71FFA0022BDF80C30AF
:100D40001146204806F0C0F903A91F4805F06CFDC4
:100D50000022CDE9005614231146104605F0D4FFB9
:100D6000B7E707F00BF91948008838B100F04CFAE2
:100D70004846FFF701FA07F0CFF8DEE700F044FA43
:100D80004846FFF7F9F9D8E700100140E8010020D4
:100D90003C0900200D0A4B455932B1BBB5A5BBF744
:100DA000A3BACACDB7C531B8F6CDA3B3B5CEBBA3F0
:100DB000ACCAA3CFC22564B8F6CDA3B3B5CEBBA150
:100DC000A300000008090020E8050020AC01002075
:100DD0001CB500F071F900F0A1F900F07DF904F004
:100DE000C0FE04F011F808F039FF01A805F0D4FAAC
:100DF00000F0DAF910A00EF063FD00F0A5F8FFF79F
:100E000089FE00F051F90446114D124E4FF47A77E5
:100E10002888FFF72DFC3146FFF7CDFAFFF765FC78
:100E200002460B460CA000940EF04AFD01AA0021D8
:100E3000384605F0EFFEEBE7D5FDD4DAB4B4BDA833
:100E4000D3A6D3C3C8CECEF12E2E2E0A0D0000009D
:100E5000FC0100200000C842637075CAB9D3C3C248
:100E6000CA3A252E326625252C25640A2C0000005E
:100E700008B5264E264D4FF47A773C246A46002169
:100E8000384605F0C7FE3068401C3060FFF770F947
:100E9000804600F0A7F92878401CC1B229700129CA
:100EA00001D107F05DF800F0AFF94046FFF764F9B3
:100EB0003168B1FBF4F004FB1012B1FBF4F115A0A2
:100EC0000EF0FEFCFFF754F9804600F08BF928780D
:100ED000401EC1B2297029B100F096F94046FFF7D3
:100EE0004BF9CBE707F04AF80E48008838B100F01C
:100EF0008BF94046FFF740F907F00EF8BEE700F027
:100F000083F94046FFF738F9B8E7000014000020E5
:100F1000E80100200A54696D653D253032643A25A8
:100F200030326400AC01002008B5064C02F0DEFC53
:100F3000E06880F00800E0606A4600210A2005F0C1
:100F400069FEF3E7001001402DE9F0478AB0002464
:100F50000325CDE9064531480DF1240905944FF0EC
:100F6000020880260C27CDF82090CDE90080CDE93D
:100F7000027623462A4A2BA10494A0F5C96005F005
:100F800075FACDE906452A480594CDF82090CDE9BB
:100F90000080CDE902760023264A27A10494A0F61A
:100FA000B86005F063FA09AB052227A1294804F0CF
:100FB000D9FF05944FF0050ACDE9036ACDE9075939
:100FC00025480023CDE90080244A25A102970694F4
:100FD000274805F04BFA0594CDE90759CDE9036A96
:100FE0002448CDE9010722480023234A23A1009584
:100FF0000694C83005F03AFABDF8240023A1264A29
:10100000CDE90210CDE9008212480A231A4623A135
:10101000343805F08BFF0AB0BDE8F087680B00207C
:10102000290F00084B6579205363616E00000000B2
:1010300068150020710E000847554920426173650C
:10104000205465737400000053656D4F664B6579DD
:10105000000000003C090020681D0020610B000812
:10106000417070205461736B204B65793100000032
:1010700078070020681F0020C10C00084170702014
:101080005461736B204B65793200000054696D65C3
:1010900072204F76657221009D9D00084D79536F37
:1010A000667454696D65720000B585B0684608F0D5
:1010B000A7F9019805B000BD10B500F01BF804F0C9
:1010C0000BFD0121402008F07FF901F043FBBDE852
:1010D000104008F0C7BE000010B5FFF7E5FF044957
:1010E0000968B0FBF1F0BDE8104006F073B80000ED
:1010F000440A01084FF4A06004F036BD10B507E0C3
:1011000003780C78A34201D0002010BD401C491C7C
:10111000521E92B2F4D2012010BDFEE710B500F0CD
:101120008BF8BDE8104000F001B800002DE9F04157
:10113000104E002737807780B760F7607761B7611E
:1011400037610025FFF714F880460024776100F02E
:1011500049F800F059F870690544641CA4B2002CE9
:10116000F4D035617761B7614046BDE8F041FFF7E3
:1011700003B800005801002003490969884201D9D9
:10118000401A7047002070475801002010B5FEF744
:10119000EFFF04494C69FEF7EFFF2046BDE8104021
:1011A000FFF7EABF5801002010B5FFF7EFFF044634
:1011B000FEF7DEFF034A00215161FEF7DDFF204606
:1011C00010BD00005801002010B5FEF7D1FF044902
:1011D0008C69FEF7D1FF2046BDE81040FFF7CCBF79
:1011E0005801002010B5074C2088401C20806088E2
:1011F000002802D100F046F8A0606088401C6080A2
:1012000010BD00005801002010B50A4C6088401E37
:1012100080B2608000280CD100F034F8E060A16852
:10122000401A6169814200D26061A169814200D2A5
:10123000A06110BD5801002002490020486000F064
:1012400009B80000580100200149486070470000BB
:101250005801002010B50948016841F08071016013
:10126000074800214160016841F001010160FFF77A
:101270001BFFBDE81040FFF7E7BF0000FCED00E0FA
:10128000001000E00148406870470000001000E0D6
:10129000704701B502E00098401E009000980028B9
:1012A000F9D108BD10B51F4A0A2822DD0A2920DD20
:1012B00040F2EE7400210123A0420DDAD469C4B9D2
:1012C000D36111621361516140F27444A04201DDA7
:1012D00093600EE091600CE0146A54B91362D1611E
:1012E0001161536140F65434A04201DAD36000E04A
:1012F000D160106940B10B489168406811B1401F3E
:10130000506001E0401D50605069002805D005483C
:10131000D168006811B1401D106010BD401F106001
:1013200010BD00003800002070B5FF2001F036FF2E
:101330001F4D0222D5E9000101F038F94FF47F0674
:10134000304601F02BFF1B4869684368CA1C934272
:101350002CDC2A680468D01C844227DCC91E8B421E
:1013600024DBD21E944221DB6FF07F4001F016FF98
:10137000D5E90001022201F019F9304601F00EFF13
:10138000FEF73EFFF02190FBF1F201FB1200286016
:10139000FEF736FF4FF4A07190FBF1F201FB120053
:1013A0006860A5F128018869401C886170BD000053
:1013B00060000020742100201CB50024019401ACC1
:1013C000009400F0E7F81CBD2DE9FF4F83B0814683
:1013D00006988A46A0EB0A08109E00200090A2EB17
:1013E00009043568934654EA080018D02046FFF7F0
:1013F0008DFB07464046FFF789FB87420BDA204604
:10140000444680464846D14682465846DDF818B0E4
:10141000069001200090002C07DD204606E007B072
:101420004846BDE8F04F00F03BB96042A0420AD008
:101430004846D9466442C8F1000883464FF0FF375A
:10144000DDF818A000E001275148B8F1000F11D0D5
:1014500004EBD4714FEA610B01DACBF1000B4C487D
:101460000068807E88B3002F02DA30682044306044
:1014700000257BE000990029016821D0897E11B107
:101480000027804615E007B05A4649465046BDE859
:10149000F04F03F063BE28466D1C0DF099F938B982
:1014A000D8F8000009EB0701406E426850469047AB
:1014B0007F1CA742EFDD6D1E356007B0BDE8F08FE1
:1014C0008A7E1AB10027804617E019E0486E5A4616
:1014D0005146036807B04846BDE8F04F1847284614
:1014E0006D1C0DF075F938B9D8F8001009EB07003C
:1014F000496E4A68514690477F1CA742EFDDDAE704
:1015000000250FE008FB05B090FBF4F101EB0A00A9
:10151000009951B11E4A09EB05011268526E5268DA
:1015200090476D1CA542EDDDC7E7194909EB05039E
:101530000968496E4A6801461846F1E708FB05B09C
:1015400090FBF4F101EB0A00019030683844306000
:101550000DF03EF948B9009890B10D4809EB05012E
:101560000068406E4268019890476D1CA542E5DD19
:101570003068002F01DA20443060C01B30609CE7E7
:10158000034909EB05000968496E4A680199EBE7D0
:10159000600200202DE9FF470F464049164680466D
:1015A00009680C981D460A7E012A1CD0A8EB06008B
:1015B000791B50EA01031CD0A2F101090EF0B4F925
:1015C00000F58060824603F03DF900FB09F45046C7
:1015D00003F03CF900FB09F1002C0CDAC4F50070B3
:1015E000801240420AE00090324639464046FFF7FA
:1015F000EBFEBDE8FF8704F50074A012002904DAB1
:10160000C1F5007189124C4202E001F500718C12A3
:10161000002804DD411C01EBD171491003E000EB0F
:10162000D0714910401E00EBD0704210002C04DD38
:10163000601C00EBD070401003E004EBD47040104D
:10164000641E04EBD47308EB0104ADF800403C18B1
:10165000ADF80240A8EB02045B10B21AADF80440EA
:10166000ADF808203144FC1AEA1AADF80C102844F1
:10167000ADF80A20ADF80E000023ADF806401A467A
:101680000421684600F07AF8394640460BF06AFCBF
:10169000294630460BF066FCABE7000060020020F4
:1016A000064A13681A7E012A05D0521E02EBD27236
:1016B000521000F005B85A6E5268104760020020C0
:1016C0002DE9F05F0646884640F2C32002FB00F198
:1016D0004FF47A7091FBF0F702FB02F102EBD2704B
:1016E00001EB600B1446B118234A301B7F1C1268B3
:1016F000526E13680A4641469847012538E000BFFC
:1017000005FB05F004FB040159451CDDBC4219DD55
:10171000194B06EB050AA6EB05091B68AAF10102A5
:1017200008EB04015B6E09F101001B689847124B3E
:10173000AAF10102A8EB04011B6809F101005B6E2C
:101740001B689847641E0C4B3219301B1B6892466D
:1017500008EB05015B6E81461B689847064B5246B5
:10176000A8EB05011B6848465B6E1B6898476D1C1B
:10177000BD42C5DDBDE8F09F600200202DE9FF4FAE
:1017800043F6FF740F46664283B09B4681460021B4
:101790000BE000BF09EB8100B0F90200A04200DAC3
:1017A0000446B04200DD0646491CB942F2DB6748F8
:1017B0000068406900280DD0B0F906101A46A1EB68
:1017C0000B01B14200DA0E46B0F90200801AA042C5
:1017D00000DD0446B4E0DFF878A100200546CAF831
:1017E000000088E0781E854201DA6B1C00E00023CF
:1017F00009EB850C09EB8302BCF90200B2F9021077
:10180000A04244D1A14215D139F92330059A39F9C2
:10181000251003EB020C4D4A05981268084404EBAE
:101820000B01526E6045136801DA62462AE00246F7
:10183000604627E02846A4464FF000087A1E0BE0D9
:1018400008B1401E00E0781E09EB8003B3F90230B6
:10185000634504D108F101089045F1DB2346A3421A
:1018600048D01A1B39F92500A1EB040C059B92EA1C
:101870000C0F09D4354A184404EB0B011268526E60
:1018800013680246984735E009F078FF32E0A1423C
:1018900030D001DBA04203DDA0422BDBA14229DCDA
:1018A000E04688420ADC0346A04223DC0846A14207
:1018B00020DBB8F900C0B2F9001008E00B46A142E5
:1018C00018DCA04216DBB2F900C0B8F90010E21A29
:1018D000A1EB0C0151430029A0EB030202DD01EB57
:1018E000620102E0A1EB6201491CC01A91FBF0F019
:1018F0006044C9E76D1CBD42FFF674AF05980090C7
:1019000004EB0B00019000208046054613E01149CE
:10191000B8F1000F31F915A009D0009901EB0A02C6
:1019200008440A490968496E0B680199984788F08C
:10193000010850466D1C064909688D42E7DB641CAE
:10194000B4427FF748AF07B0BDE8F08F60020020D7
:101950000C03002058A8002010B5002001F01CFC4A
:101960006FF07F4001F01AFC012001F051FC0020D3
:1019700001F056FC002001F05DFC002001F016FC97
:101980000448006801F014FCBDE81040002001F09C
:101990001BBC00005C0200202DE9F0410022CC7845
:1019A00004F00F03E40601D58C7823430C784FF044
:1019B0000F0714F0FF0F4FF0010C1CD005680CFA54
:1019C00002F40E882640A64211D1960007FA06F8C6
:1019D00025EA080503FA06F848EA0505CE78282E18
:1019E00002D0482E02D002E0446100E00461521CA3
:1019F000082AE4D305600A88FF2A1ED94568002218
:101A000002F108060CFA06F40E882640A64210D110
:101A1000960007FA06F825EA080503FA06F848EAE8
:101A20000505CE78282E00D14461CE78482E00D10D
:101A30000461521C082AE3D34560BDE8F081000030
:101A4000F0B5154C002801DAE36900E06368C0F3E3
:101A50000346420D120185B2C0F301579540032F92
:101A600007D0C2020CD50322B240934343F0706208
:101A700009E023F07062636823F07063636002E042
:101A8000AB4343F0706201B12A43002801DAE261FE
:101A9000F0BD6260F0BD0000000001400246002081
:101AA00092680A4200D0012070474161704701618D
:101AB000704770B50C46054600F0FEF8A86821682E
:101AC000C16261680163A1684163490707D5D0E934
:101AD0000021C0E90012D0E90221C0E90212A18967
:101AE00081842169002903D001DC4FF000010162EB
:101AF00070BD2DE9F0411E4617468846054600F0A8
:101B0000DBF8AC686822414604F58670FEF78AFB74
:101B10002846B8472846B047286980688047A062B1
:101B2000BDE8F08110B5044600F0C6F8A068114980
:101B3000144AC0F8AC101049C0F8A8100F49C0F8FA
:101B4000B0100F49C0F8B8100021C0F8BC101368DD
:101B5000C0F8B4300C4BC0E932315168C0F8C41041
:101B600030F8261F21F0030120F82A1B07494164A1
:101B700010BD0000A9E800084DEE000871E800085B
:101B800037E300080403002007E40008A1E7000889
:101B900010B5044600F090F8A46810481021C4F86D
:101BA000E4000F48C4F8E8000E48C4F8EC000E4802
:101BB000C4F8F0000D48C4F8A0000D48C4F8A40013
:101BC000D4F8C400C4F8FC00D4F894202046904710
:101BD0001020A0630748606410BD000009C9000818
:101BE00069D20008F91B0008291D0008F1E200086D
:101BF000C9F000081C150108F8B5846815460F46A1
:101C000094F8260080074CD5D4F800312046984738
:101C10000646D4F804312A46394620469847D4F877
:101C2000983005461BB100220121204698472069C3
:101C3000B04201DD012000E00020A169B14201DADB
:101C4000012100E0002108436169A94201DD012171
:101C500000E000210843E169A94201DA012100E026
:101C6000002108430AD060680022401E00902368CB
:101C7000D4F8A870114620465B1EB847D4F8AC30A3
:101C80002A46314620469847D4F8A0102046884777
:101C9000D4F8983005466BB10122002120469847C0
:101CA00008E0D4F8AC3020469847D4F8A01020467D
:101CB000884705462846F8BD70B504468068002868
:101CC00012D14FF4BA75284600F088F92A4600214F
:101CD000A06002F073FDA0680221C18401210464A8
:101CE00001620249C0F8081170BD0000F11C000833
:101CF00010B590B0044620220A496846FEF792FAD1
:101D000008492022203108A8FEF78CFA606B5DF8A4
:101D10002010C4F8001108A951F82000C4F80401EB
:101D200010B010BD080B01082DE9F84384689846EF
:101D3000154694F826000F46800740D5D4F80031A8
:101D4000204698470646D4F804312A4639462046AC
:101D5000984705462069B04201DD012000E00020DF
:101D6000A169B14201DA012100E000210843616963
:101D7000A94201DD012100E000210843E169A942F7
:101D800001DA012100E0002108430AD06068002246
:101D9000401E00902368D4F8A870114620465B1EB0
:101DA000B847D4F8AC302A46314620469847D4F894
:101DB000A42001B041462046BDE8F0431047D4F8C6
:101DC000AC30F2E72DE9F04FDFF828B191B04FF0D9
:101DD000FF35DBF80030B3F922100691DE69B3F964
:101DE00024A0F469A189814206D8E289824203D302
:101DF000471AD4F8008012E0D4E90181002970D09C
:101E00000A8882426DD84D8885426AD3801A82B290
:101E1000486800EB8200B0F90070B0F90250781CFD
:101E20005FD0307EA27C014600FB02F9207CCDE928
:101E30000710B3F92A60304603F046FCC0B20E909A
:101E4000DBF8001007FB0980A37C8A6B0127CDE932
:101E50000402CDE90273C869089AC17E807ECDE98B
:101E60000001DDE90603514603F016F8681C18D09E
:101E700046F0020003F028FCDBF80000A37C05FB21
:101E80000981826BCDE90273CDE90412C069089A19
:101E9000C17E807ECDE90001DDE90603514602F0F6
:101EA000FBFFDBF800005D46C069417E007E814299
:101EB00014D9022E12D086F0040003F005FC286825
:101EC000C069027EC37E857E02FB03A1437E089A21
:101ED0000698534402FB050203F06AF90E9803F0DA
:101EE000F3FBDBF80000627C418C1144418411B0AB
:101EF000BDE8F08F6002002004480068C069C06936
:101F000009B1027C0A60407C70470000600200203A
:101F1000022008807047C06982898A4202D8C2893B
:101F20008A4210D2806880B102888A420DD84388E4
:101F30008B420AD3406800EB8100A0EB8200B0F92D
:101F40000000002801DB01207047002070470028B6
:101F500001D009F077BC704738B50546FFF7F7FFA9
:101F6000040009D000F0B2F82A460021009002F0E7
:101F700025FC684600F0DAF8204638BD024A1060B9
:101F800021F0030050607047D0A7002010B5002852
:101F900014D004460A48406B10F8341000290DD0C4
:101FA00002290BD2042101EBC4014158486809F011
:101FB00001FC2046BDE810400CF086B910BD0000C1
:101FC00010A70020002805D0034AD16B016001B1A1
:101FD0004860D0637047000010A700202DE9F04151
:101FE00004460BF0F1FE2848E41C24F00305016CC4
:101FF0002D1DA94200D90D46C46B13E054F8042CE2
:10200000AA420ED184B1216809B162684A60616850
:1020100009B122680A60C26BA24231D12168C16352
:102020002EE02468002CE9D18046816BC0680F182F
:1020300057F8040C3E1A306838B100200CF05EFAF4
:1020400057F8040C3E1A3068D0B97068A84217DB04
:102050003044441B3046241D0CF008FAD8F80C100C
:10206000491BC8F80C10D8F814102944C8F81410EB
:102070007068401B02D0314609F09CFB44F8045CB8
:102080002046BDE8F081000010A7002010B5002414
:102090000BF09AFE0C490F2001EBC002526C1AB1F2
:1020A00001EBC000406C08E0401EF5D508E0416837
:1020B000A14200D90C46806810B180680028F6D192
:1020C000A4F10C0010BD000010A700200549CA694A
:1020D000521CCA61496B01EBC0010A78521C0A709C
:1020E00000F03CB810A7002010B5FFF7CFFF642226
:1020F0000649B0F5800F04D990FBF2F0096A484315
:1021000010BD096A4143B1FBF2F010BD10A70020D9
:102110000549102805D94A68B0EB520F02D3500880
:1021200000E0102088607047D0A700200A490268AC
:102130004B6B52F8082C03EBC2021378022B03D32B
:10214000CB690BB15B1ECB611178491E1170002168
:10215000016008467047000010A70020002806D044
:102160000349042202EBC000496B0858083070474D
:1021700010A7002070B506460D461446104600F024
:1021800097FA0300164804EB84010AD050F82100A6
:1021900041688068711A2A1ABDE87040184601F03B
:1021A00011B800EB8104A268B24201D0012200E024
:1021B0000022E368AB4201D0012300E000231A4370
:1021C0000CD0236943B150F82100816840686A1A35
:1021D000311A184600F0B0FFC4E9026570BD000076
:1021E00094A9002010B5C2B2CBB2D21A00D5524287
:1021F00093B25B43C0F30722C1F30724121B00D53F
:102200005242000C92B2A0EB114002FB023200B22B
:10221000002801DA404200B280B200FB002010BD6D
:1022200010B50021084600F08BFA43F6FF725042C9
:10223000BDE8104013460146AFF300802DE9FC4194
:1022400007461C4615460E46042003F03DFA80461C
:102250001148C068C16C006D0F4406440D4404442D
:10226000ADF80070ADF80450ADF80260ADF806406E
:10227000684608F043FD07E023462A4631463846C3
:1022800002F096FF08F0FCFC0028F5D1404603F070
:102290001BFABDE8FC810000540200202DE9F0414A
:1022A0001C4616460D460746022B02DB0020BDE801
:1022B000F0811C20FFF792FE0028F8D00DB10561D7
:1022C0000AE0094A52F8241009B905E011460A68E3
:1022D000002AFBD1096901618461868200210160C5
:1022E0004160C0E90217E2E77802002070B51D46A0
:1022F000FFF7D4FF040009D000F00EF8E068006892
:1023000020B90348006800EB85008465204670BD55
:1023100060020020FFF756BE70B590B38269022AB2
:1023200030DA1E4C54F8221019B944F8220032E079
:1023300019464B68002BFBD106E0CB68C5681B68CB
:102340002D68AB4203DD09680029F6D11AE0C1B15E
:10235000CB68C6681B683668B3420CD1838A012BF0
:1023600005D008E01946DB681B68AB4203DB0B684D
:10237000002BF7D129B14B6833B118604A6842602D
:1023800004E0FFE7012070BD44F822004860884265
:1023900000D100210160002070BD00007802002003
:1023A0000A4A816952F82130834202D1036842F817
:1023B0002130416809B102680A60016809B14268C8
:1023C0004A600021016041607047000078020020EF
:1023D000022801DB00207047054951F8200004E085
:1023E000C16809680029F6D000680028F8D1704754
:1023F0007802002070B5044601F0A1FC051908E040
:1024000000F0B2F8052C01DD052000E0204601F0C7
:102410008DFC01F094FC2C1A002CF1DC70BD000046
:102420002DE9FC4706005BD000F04CF93B4C81469F
:102430002068B0F9228000F05BF9216807468A8C99
:10244000D01B888441E000BF47F6FF71304602F0A0
:1024500067F882460146304602F038F821680546A2
:1024600091F82C0000F0030001283FD0022839D059
:1024700000204A8C101A4884ADF800006A1E1044EF
:10248000ADF80400888CADF80200A9F10101084400
:10249000ADF806006A465146304601F0E7FD216876
:1024A000BDF8020088845146304601F023FB064403
:1024B00030780A281CD00D281AD0BDF800002168F9
:1024C00028444884307818B1761C30780028BBD175
:1024D0002068818C39448184818D21F003018185BC
:1024E000BDE8FC8705EBD5704010C2E72846C0E781
:1024F000206890F82C1001F0030101290BD002296B
:1025000009D0018C418431780A29DBD1828C02EB1D
:1025100009018184D6E7A0F82280F4E76002002058
:10252000024B1B6859849A84FFF77ABF600200202F
:102530002DE9F0410B4C2568EC6C2718286DA51887
:102540004618C418002008F0D9FB07E023462A46A5
:1025500031463846FEF730FF08F092FB0028F5D1EF
:10256000BDE8F0816002002010B5002400E00124E5
:1025700000F004F80028FAD1204610BD094810B533
:102580000068002410B1804700B1012407F0B6FEB6
:1025900000B101240448006810B1804700B1012453
:1025A000204610BD840200208002002070B516462F
:1025B000094A1268D36C1C18106D4518002008F0E9
:1025C0009DFB06E0324629462046FFF779F808F0E1
:1025D00057FB0028F6D170BD6002002008B50B46FD
:1025E000002805D0009281888268C08800F001F838
:1025F00008BD10B50828029C30D008DC04FB01F4AB
:1026000001280AD0022813D0042804D11CE0102885
:1026100028D020282CD0002010BD04EBD30003F0DC
:102620000701105CC1F10701C84000F0010010BDB6
:1026300004EB93000621105C01EA4301C1F106019D
:10264000C84000F0030010BD04EB5300D907105C34
:1026500002D000F00F0010BD000910BD04FB0130D6
:10266000105C10BD481004FB003032F8100010BDA3
:10267000881004FB003052F8200010BD034951F8C7
:102680002000C1688A6A08211047000078020020F3
:1026900002490968C9694A680021104760020020A0
:1026A000024A1268D2695268104700006002002096
:1026B0000021022802D2024951F820100846704732
:1026C000E003002002480068C069407E70470000B7
:1026D0006002002070B514460D4602F0CBFD0028C4
:1026E00002D000202860206070BD01F035BF0000DE
:1026F0000A490020096891F82C2002F00C02042AF3
:1027000007D0082A01D00C2A02D1C869007E4008EF
:102710007047C869007E401E7047000060020020BC
:10272000024951F8200000690068704778020020D3
:10273000024951F820000069406870477802002083
:1027400070B50D460BF0A0FA044628460BF0A4FA2B
:10275000204370BD2DE9F0411948016821F00101C5
:102760000160184801258560174901600068174914
:10277000884200D0FEE701F0ABFB154E2E203070F2
:1027800001F0E2FA13480BF0E7FA0DF0B7FD074647
:1027900002F09AFD10B102F0ABFD38B902F0B1FDC4
:1027A000044602F09AFD214602F088FF0021084607
:1027B00000F012FD07F0C6FF75703846BDE8F081E5
:1027C000002000E000300240C2A507F4CDB5E8B516
:1027D00054020020DCA700201CB520B90C4800687A
:1027E000006E002812D0FFF771FC00904469684623
:1027F000FFF79CFC002C09D02046FFF767FC0190F6
:1028000081688968884701A8FFF790FC1CBD00001B
:102810006002002001490A4600F002B801F0FFFF03
:102820002DE9F04387B015460C465FEA000842D018
:10283000002000F0BBFC814620480068066E404640
:10284000FFF744FC00900068806900F08DFC0746AB
:1028500040F6FF70C44204D10098B0F90440B0F9CA
:1028600006500098611E0289ADF804401144ADF88D
:1028700008104189681E0844ADF80650ADF80A00FA
:1028800007F09EFB6846FFF751FC01A808F036FAF6
:1028900006E02A462146404600F04EFB08F0F0F9DB
:1028A0000028F6D1384600F05FFC304600F066F9AB
:1028B000484600F07BFC07B0BDE8F08360020020D2
:1028C0002DE9FE4F83461A488A461A4900680C9E35
:1028D0009846407C9146002751F82040E1680968FD
:1028E000042903D02468002CF8D100E01CB9FFF7BC
:1028F0006FFD041E19D0E0680121C26A204690478E
:10290000050011D02469A0688047401C02D10A4C00
:1029100046F001060096CDE9015443464A46514629
:10292000584600F0AFF907463846BDE8FE8F000074
:1029300060020020780200207016010838B50400FB
:1029400018D00D480068006EA04201D100F002FCD2
:102950002046FFF7BBFB0090406908B101F0C1F9C8
:1029600000980068FFF7D6FC6846FFF7DFFB2046BB
:10297000FFF70CFB38BD0000600200202DE9FF4F7F
:10298000DFF83891074683B0D9F800009A468B46A5
:10299000447C4B4800570128204606DD02F09AFC93
:1029A0000546204602F0AAFC05E002F07CFC054644
:1029B000204602F07EFC04461FB302A901A8FFF7DF
:1029C00094FEB7F90000002800DA0020B7F9026091
:1029D0008046002E00DA002601984119B7F904005C
:1029E000491E0BF008FB054602980119B7F90600CD
:1029F000491E0BF000FBA5EB0802841B521C641C53
:102A000003E04FF0000846462A46BAF1000F01D114
:102A1000C4F1000A002A4FDD002C4DDD1098009013
:102A2000534631464046FFF74BFF5FEA000A10D09D
:102A300000F06AF80746A04206D0D9F80000806C82
:102A400010B1322108F0D2FC504600F097F8002572
:102A500021E0594605988847012007B0BDE8F08F6E
:102A6000611BB94202DA504600F072F83DB17219AA
:102A70004146504600F0A4F85046FFF7ADFE5946D7
:102A8000059888470F48016809B1002088475046DB
:102A9000FFF7C0FE3D44A542E2DB5046FFF74EFF84
:102AA000002000F06BF8A74206D0D9F80000806C37
:102AB00010B1332108F09AFC0020CEE7600200201C
:102AC00098020020F403002038B5002460B1FFF71D
:102AD000FDFA0090006800698068804702F0E2FF1C
:102AE00004466846FFF722FB204638BD38B500286B
:102AF00008D0FFF7EBFA00F1180400906846FFF7E2
:102B000015FB204638BD000038B5002418B9074829
:102B10000068006E38B1FFF7D9FA0090B0F90A40AA
:102B20006846FFF703FB204638BD00006002002026
:102B300070B505460024284608F0D4FF641C18B17F
:102B4000BDE8704000F068B8052CF4DB70BD0000F3
:102B500038B50C4620B908480068006E00280AD035
:102B6000FFF7B4FA0090B0F90A10A14200DD4481E9
:102B70006846FFF7DBFA38BD60020020F8B50F4E5B
:102B800005003068046E16D00CB100F0E3FA07F0CF
:102B900003FB2846FFF79AFA009031680D6600683B
:102BA000FFF7BAFB6846FFF7C1FA02F0EBFD02F04F
:102BB00065FD2046F8BD00F0CDFAFAE7600200207E
:102BC0007CB515460C4620B912480068006E0028F6
:102BD0001FD0FFF77BFA2DB20090C58024B284800D
:102BE00002F04CFD0098406980B1FFF76FFA009A3F
:102BF0000190B2F908108180B2F90A20C28011B1A7
:102C00000AB10480458001A8FFF790FA6846FFF7F3
:102C10008DFA7CBD6002002001490A4600F002B82E
:102C200001F0FFFF7FB515460C46060028D0FFF7E0
:102C30004DFA40F6FF710190CC4203D1B0F9044047
:102C4000B0F906500289611E1144ADF80840ADF894
:102C50000C104189681E0844ADF80E00ADF80A500A
:102C600001A8FFF763FA02A808F048F806E02A4630
:102C70002146304600F048F908F002F80028F6D165
:102C80007FBD00002DE9FF4FDFF8E8B083B01C46A0
:102C9000DBF80010DDE9106092464FF000084B7C35
:102CA00042461299FFF7FAFA050060D02869806859
:102CB000804702F0F7FE81460AFB09F1C91DCF08E3
:102CC000FFF712FAF10705D1C11700EB91708010E0
:102CD00000EB4000002C09DC1FB11838B0FBF7F006
:102CE00000E000206442A04200DC0446F00707D167
:102CF0000090DDE903012346524600F07BFF804649
:102D0000002C03DC2846FFF705FB30E004FB07F04E
:102D10001830F10702D0FFF71AF901E0FFF71CF9AC
:102D200006001CD0FFF7D2F901900560039981805D
:102D30000499C180A0F808A04481C0F81480C0E9BB
:102D4000037901A8FFF7F2F91298AE602861DBF869
:102D50000000407CA861304607B0BDE8F08F2846EF
:102D6000FFF7D8FAB8F1000001D0FFF70FF9002003
:102D7000F2E70000600200202DE9F74F8EB0144604
:102D800089460E98FFF7A2F90990B0F908B0B0F99A
:102D90000A600068006940680C9009A8FFF7C6F94E
:102DA000564D574F2868407C57F82000C1688A6A02
:102DB000082190470790182801D320200790286801
:102DC000407C57F820000069069003C80B904D48DE
:102DD000814201D0012000E000200A90002000F094
:102DE000C1FF00287DD1286809EB0B01B0F90C2048
:102DF000891A491E002902DDABEB010500E05D46A2
:102E0000B0F90810494505DDA1EB090189446D1AA7
:102E1000089101E000210891002D6BDDB0F90E2032
:102E2000A119891A491E002902DDA6EB010800E05C
:102E3000B046B0F90A00A04204DD061B3444A8EBFA
:102E4000060800E00026B8F1000F53DD0898019055
:102E50000DA95F46DDF830A00E980091FFF746FE01
:102E6000774300EB870101982B4601EB8002009924
:102E70004846CDE900A1214601F050F90090002814
:102E800038D00A98E8B1DDE906322946009801F009
:102E900019F8B0B90698009FDA46D0F810C0BCF116
:102EA000000F05D004235A4639463846E04708E06B
:102EB0000B993868884701C7AAF101005FEA000A48
:102EC000F6D100990020079ACDE903010590012071
:102ED0000090CDE9010221460346641C2A4648467B
:102EE00000E007E001F0D8FFA8F10100761C5FEADE
:102EF0000008ABD111B0BDE8F08F000060020020E7
:102F0000780200209F530008F8B515460E46074684
:102F1000FFF7DCF8009000681621C068426A0020C4
:102F2000904704466846FFF701F9002C03D02A4673
:102F300031463846A047F8BDF8B516460F4605009D
:102F400012D0FFF7C3F8009044696846FFF7EEF827
:102F50002846FFF7B9FD0346082800DD2CB13246AC
:102F6000394628460CF0C6F8F8BD324639462846A0
:102F70000CF060FAF8BD10B5002821D009B30AB3EF
:102F8000B1F90040B2F900309C4200DA23460380D8
:102F9000B1F90240B2F902309C4200DA2346438084
:102FA000B1F90440B2F904309C4200DD234683802D
:102FB000B1F90610B2F90620914200DC1146C18039
:102FC00010BD11460A6802604968416010BD0028C2
:102FD0000BD003880B440380838819448180418887
:102FE00011444180C1881144C180704770B50E4DB5
:102FF0000446D5E90001884209D10C49884201D133
:103000003C3000E00C3807C884E8070006E090E890
:103010000E0084E80E000AF047FE2860207A00289F
:1030200000D0012070BD00001003002070A8002017
:103030000448D0E90010814201D1012070470020EE
:103040007047000010030020054A10B503491160C5
:103050000BF068FFBDE8104000F0F6B8D5A30008FB
:103060008802002070B5094C0020D4E900218A4272
:103070000AD0D2E9005610460AF02EFE20603146F2
:10308000284607F043FC012070BD0000D00300205B
:103090002DE9FC41154DDDE908742D68B5F908608E
:1030A000864200DD3046B5F90C60964200DA3246C1
:1030B000824219DBB5F90A608E4200DD3146B5F96E
:1030C0000E509D4200DA2B468B420DDB00E02C4671
:1030D000E5682D6825B1042D02D02568002DF6D1B4
:1030E000CDE9007402F0B4F9BDE8FC816002002073
:1030F000B0F90220B1F906309A4213DCB1F902208E
:10310000B0F906309A420DDCB0F90020B1F9043074
:103110009A4207DCB1F90010B0F90400814201DCE9
:103120000120704700207047014602487022006865
:10313000FDF778B860020020002801D00BF058BCE1
:1031400070470000024970220968FDF76BB8000063
:103150006002002010B502F047FA02F013FBBDE850
:10316000104006F02DBF000070B5094D0446022C3A
:103170002868467C09D22046FFF72AF928B128683A
:103180004474FFF7E7FF03480460304670BD000059
:10319000600200205803002002F046BA02F07CBA18
:1031A00001498860704700005402002002F08CBA88
:1031B00003490968CA6900B1C86110467047000038
:1031C0006002002002F09CBA024909688A7E887673
:1031D0001046704760020020094A30B41080094A46
:1031E0001180094A1268537C084A52F82330DA6881
:1031F000146A0A46A446014630BC184660470000DF
:10320000A0020020A202002060020020780200201C
:10321000024909680A7E087610467047600200205D
:1032200003490968B1F92C208885104670470000D1
:103230006002002003490968B1F92A204885104638
:10324000704700006002002002480068002800D09B
:1032500000477047E803002002498A6802B9886085
:10326000FFF7F2BFD003002010B5040009D00BF027
:1032700017F920460BF000FF2046BDE81040FEF78E
:1032800085BE10BD38B50C4660B1FEF71FFF00903B
:103290008089204201D0012400E000246846FEF726
:1032A00045FF00E00124204638BD000038B5054642
:1032B000002028600648046844B12046FEF706FF57
:1032C0000090006928606846FEF730FF204638BD50
:1032D0003404002038B504004FF000000D460860AB
:1032E00011D02046FEF7F2FE0090846844B1684693
:1032F000FEF71CFF2046FEF7E9FE009000692860FB
:103300006846FEF713FF204638BD00002DE9F04F58
:1033100097B01D461646894604464FF00008FE4900
:10332000DDF888B0DDF880A0C1F80080CDF84080DD
:10333000022828D06A4603AB0BAF0DF1200C032CFA
:103340007EDB55D14FEA0C0755F82800FDF787F9C9
:103350004DF828005AF82800FDF781F903A941F833
:10336000280059F82800FDF77AF90BA941F8280040
:1033700056F82800FDF773F947F8280008F101080E
:10338000A045E1DBE6E068681F68C01BFDF767F950
:103390000446D9E90001081AFDF761F92146FDF755
:1033A0000AF8DE4C0546C4E900083846FDF757F92F
:1033B0002946FCF7CEFF80F00040C4E90208DAE9B4
:1033C0000071C81BFDF74BF90546D6E90010401AFD
:1033D000FDF745F92946FCF7EEFF05462061384622
:1033E000FDF73DF92946FCF7B4FF80F00040AFE15E
:1033F000002041464CF8201047F8201043F82010D8
:1034000042F82010401C0328F4DB002760E000BFD6
:1034100055F82700FDF723F911900299FCF741FFB9
:1034200002905AF82700FDF71AF980460599FCF733
:1034300038FF059059F82700FDF711F9139000E0C7
:10344000BAE10D99FCF72DFF0D9056F82700FDF716
:1034500006F912900A99FCF724FF0A901198014688
:10346000FCF777FF0099FCF71CFF0090414611988C
:10347000FCF76FFF0199FCF714FF019003904146A0
:103480004046FCF766FF0499FCF70BFF0490139984
:103490001198FCF75EFF0B99FCF703FF0B90404679
:1034A0001399FCF756FF0C99FCF7FBFE0C90DDE935
:1034B0001101FCF74EFF0899FCF7F3FE0890404617
:1034C0001299FCF746FF0999FCF7EBFE7F1C099067
:1034D000A7429DDB02990098FCF76DFF00900599CB
:1034E0000198FCF768FF0190DDE90210FCF763FF2B
:1034F0000390DDE90401FCF75EFF049002990B984C
:10350000FCF759FF0B9005990C98FCF754FF0C90B1
:1035100002990898FCF74FFF089005990998FCF765
:103520004AFF09902046FDF79AF804462146029882
:10353000FCF741FF029021460598FCF73CFF0590FF
:1035400021460D98FCF737FF0D9021460A98FCF7AD
:1035500032FF0A9005990398FCF7F5FE0646DDE96F
:1035600001013446FCF7EFFE2146FCF7F2FE04466B
:10357000DDE90401FCF7E7FE054602990098FCF737
:10358000E2FE2946FCF7E5FE2146FCF7DCFE054697
:1035900010F0FF4F7ED0DDE90C01B0464446FCF749
:1035A000D2FE81462146FCF7D4FE0746DDE9040140
:1035B000FCF7C9FE824654460D990B98FCF7C3FEF2
:1035C00006462146FCF7C5FE3946FCF7BCFE2946F7
:1035D000FCF7F1FE514C2060DDE90101FCF7B3FE80
:1035E000014614903046FCF7B4FE06460299009856
:1035F000FCF7A9FE014615904846FCF7AAFE3146A5
:10360000FCF7A1FE2946FCF7D6FE60600C990098F5
:10361000FCF79FFE06460B990198FCF79AFE31468F
:10362000FCF791FE0599FCF794FE07460B9902986A
:10363000FCF78FFE06460D990098FCF78AFE31468E
:10364000FCF781FE0499FCF784FE06460D9901986B
:10365000FCF77FFE81460C990298FCF77AFE4946FA
:10366000FCF771FE0399FCF774FE3146FCF719FE76
:103670003946FCF716FE2946FCF79DFEA060DDE901
:1036800009014646FCF75FFE80463146FCF761FEC5
:10369000064600E061E0D1460A990898FCF753FE1F
:1036A00007464946FCF755FE3146FCF74CFE2946D5
:1036B000FCF781FEE06038461499FCF74AFE0646A6
:1036C00040461599FCF745FE3146FCF73CFE29467D
:1036D000FCF771FE206109990098FCF73AFE064656
:1036E00008990198FCF735FE3146FCF72CFE059948
:1036F000FCF72FFE074608990298FCF72AFE0646BB
:103700000A990098FCF725FE3146FCF71CFE049947
:10371000FCF71FFE064603E01C030020B8A80020AB
:103720000A990198FCF715FE804609990298FCF762
:1037300010FE4146FCF707FE0399FCF70AFE3146EE
:10374000FCF7AFFD3946FCF7ACFD2946FCF733FE2C
:103750001A4960610120086001E0109860B3174CBD
:1037600021980021C4E9010B08460AF0C1FB0021A1
:10377000E06008460AF0FEFB20612198ABF10101F0
:10378000401E0AF0B5FB60612198ABF10101401EBB
:103790000AF0F0FBA0616269E168914201DDE2603C
:1037A00061612169814201DDA1612061206818B158
:1037B000002017B0BDE8F08F0120FAE71C030020BD
:1037C0002DE9FE43DFF8B89005000A9ED9F814C031
:1037D0004FF00000CCF3410709F1300439D0012D3E
:1037E00002D00120BDE8FE83DFF8948008F12008B4
:1037F000C8E90012052131EA0C013ED0012F3CD06E
:10380000C4E90036012199F80030A9404A4619421E
:1038100001D00023137013781943C9B289F800103E
:103820000329DFD1174E3068407C01F053FD054677
:103830003068407C01F062FD114B0094CDE90150ED
:103840002833A3F10802A2F108010220FFF75EFD70
:10385000C8E7DFF82C80032F08F11808C8E9001228
:1038600008F1100106D00CF00502012A02D0C1E9CE
:103870000036C7E7C1E90063C4E7C4E90063C1E7F4
:10388000A80200206002002070B5174C06460D46C5
:103890003268E16801208A421EDB29682369994267
:1038A0001ADB63699A4217DCA269914214DC29464B
:1038B000304600F0B3F800280ED133680022002B08
:1038C00001DA326004E061688B4201DB491E31603D
:1038D0002B68002B01DA2A6070BDA1688B42FBDBEC
:1038E000491E296070BD00001C03002070B5254CE6
:1038F00086B06078F8B100F0E1F8E06000F0DCF844
:10390000E06803902069049000F03EF88DF809000B
:1039100004A903A8FFF7B8FF0025B0B1A07870B3E1
:1039200060680090A06801908DF80850684600F02B
:1039300051F8A57023E000F0C4F8206100F0BDF854
:103940006078401C607006B070BD039A6068111A00
:1039500000D54942049BA068181A00D54042A678B9
:1039600016B1084402280ADD62600092A3600126B5
:1039700001938DF80860684600F02CF8A670657019
:10398000E1E70000A80200200148407A70470000EB
:10399000D0A80020054910B591E81C0080E81C0063
:1039A000087A002800D0012010BD00004CA800209B
:1039B0000148C06870470000A80200200148006963
:1039C00070470000A80200200149486170470000CC
:1039D000A80200203EB504460C220E49FCF754FC18
:1039E000002813D00B4894E80E0080E80E000A4827
:1039F000026862B194E80B008DE80B00684601A9EB
:103A00009047002802D16846FFF71EFB3EBD2046C6
:103A1000FAE700004CA80020A40200202DE9F0479E
:103A2000054622480E460068E0B3D5F800803068AD
:103A3000FCF715FE1E4C81466168FCF78AFC0746C0
:103A40004046FCF70CFE80462168FCF782FC3946B4
:103A5000FCF727FCA168FCF724FCFCF746FE154F99
:103A600000223B46FCF7E5FCFCF720FE28604846B8
:103A70002169FCF76EFC05464046E168FCF769FCED
:103A80002946FCF70EFC6169FCF70BFCFCF72DFEE8
:103A900000223B46FCF7CDFCFCF708FE306000201E
:103AA000BDE8F087FFE70120FAE700001C030020D3
:103AB000B8A800200000E03F70477047D02007F012
:103AC000A9BD902007F0A6BD2DE9F041084E04469F
:103AD00005683068016828468847074630684168AD
:103AE00028468847284420603846BDE8F081000019
:103AF000640200202DE9F0410C4606460025064FE1
:103B000005E0386841683046884706440544641E2D
:103B1000F7D22846BDE8F081640200202DE9F0418B
:103B20001E46069C1746884605463A46A8687F1CEE
:103B30003346D0F804C041462846E047641EF4D11D
:103B4000BDE8F08170B5B0F90040091BB0F9044040
:103B50008C422CDD00F11404B0F902500069521BB4
:103B600002FB0040CA1800EBE104521ED010B0EB7B
:103B7000E10501F007034FF0FF0102F0070221FA0F
:103B800003F0C2F1070201FA02F1CEB221780FD0A0
:103B900001436D1E04F8011B002D05DDFF2229469F
:103BA0002046FCF75FFB2C4420783043207070BD2A
:103BB00030400143217070BD10B5B0F90030B0F94C
:103BC0000240C91A00F114030069121B02FB003005
:103BD00000EBE10001F0070302788021D9400A439D
:103BE000027010BDB0F90610026951431430FCF7A1
:103BF00040BB00002DE9F843804602F10F000011A0
:103C0000470003FB07F01C46154689461430FEF7B3
:103C1000A3F9060013D0FEF759FA0090A0F800802F
:103C2000A0F802908580C4800649816001218181CD
:103C300007616846FEF77AFA3046BDE8F88300204F
:103C4000FBE70000FC16010870B5B0F90660B0F99A
:103C500004400B6800F1140596421BDD0069A34285
:103C600002FB005000EBE30214DA641EE010A0EB4C
:103C7000E30512F8010B03F00704A040C4B206E00C
:103C800045B1083312F8014B23F007036D1E002CD9
:103C9000F6D004E0002070BD6006040E5B1C200618
:103CA000FAD5FF2C07D0184602E06406240E401C0B
:103CB0006606FAD400E0D81DC443640705D006E0C8
:103CC00012F8014BFF2C09D108306D1EF8D5C01A2F
:103CD000401C0B6070BD6206140E401C2206FAD414
:103CE000F5E738B50546FEF7F1F900908189491EE0
:103CF0000CB284816846FEF719FA002C02D12846DE
:103D0000FEF744F938BD000010B54FF4D041054826
:103D1000FEF734F98020FEF7FBF9BDE810400248B9
:103D2000FFF73EBA942400203C12010808B56A4609
:103D3000002102F06FFF08BD0120FFF7F7BF08B5B3
:103D4000684603F0B7F808BD08B56B46002202A12B
:103D5000034802F007F908BD4B657953656D000013
:103D6000E48C00200EB508B102AA00E00022002376
:103D700001A9684600F05CFB0EBD0000074910B5C4
:103D80000C7818B101200870801E03E00020087034
:103D90006FF07F4001F06AF8204610BD9A020020C3
:103DA00010B5082A0EDC0346012A18D0022A56D084
:103DB000042A76D010F8042B03F8012B491EF9D100
:103DC000012010BD102A08DC4FEA000230F8043B45
:103DD00022F8023B491EF9D1F2E7002010BD10F88D
:103DE000042BD207120E491E34D010F8044B491E82
:103DF00004F0010442EA84122CD010F8044B491E4E
:103E000004F0010442EA441224D010F8044B491E85
:103E100004F0010442EA04121CD010F8044B491EBD
:103E200004F0010442EAC40214D010F8044B491E05
:103E300004F0010442EA84020CD010F8044B491E3D
:103E400004F0010442EA440204D010F8044B04F0E8
:103E50000104224303F8012B0029C0D1B0E710F878
:103E6000042B9207120E491E15D010F8044B491E60
:103E700004F0030442EA04120DD010F8044B491E6A
:103E800004F0030442EA840205D010F8044B04F065
:103E900003042243491E03F8012B0029DFD18FE7D9
:103EA000FFE710F8042B1207120E491E05D010F878
:103EB000044B04F00F042243491E03F8012B002990
:103EC000EFD17DE738B50024009400F01BF838BD31
:103ED0000A4810B5816900290ED101218161FFF7DF
:103EE00013FF01F061FC054905481C310860BDE87D
:103EF0001040084600F05ABC10BD000054020020DB
:103F0000A1E000082DE9F0410D460699044601B9EB
:103F100001461F68082A09DC0E46012A1AD0022A27
:103F20005BD0042A7DD0082A13D18DE0102A07DC4B
:103F3000D3F810C00E46BCF1000F04D0022389E074
:103F40000020BDE8F08101CCB84726F8020B6D1EB9
:103F5000F9D189E001CCB847C0074FEA10686D1E5F
:103F600036D001CCB84748EA801000F0FF086D1E3B
:103F70002ED001CCB84748EA401000F0FF086D1E73
:103F800026D001CCB84748EA001000F0FF086D1EAB
:103F90001ED001CCB84748EAC00000F0FF086D1EF3
:103FA00016D001CCB84748EA800000F0FF086D1E2B
:103FB0000ED001CCB84748EA400000F0FF086D1E63
:103FC00006D001CCB84740EA080000F0FF086D1E9B
:103FD00006F8018B002DBDD146E001CCB847800723
:103FE0004FEA10686D1E16D001CCB84748EA0010A1
:103FF00000F0FF086D1E0ED001CCB84748EA8000E3
:1040000000F0FF086D1E06D001CCB84740EA08005A
:1040100000F0FF086D1E06F8018B002DDDD123E0B6
:10402000FFE701CCB84700074FEA10686D1E06D0C5
:1040300001CCB84740EA080000F0FF086D1E06F802
:10404000018B002DEDD10FE0D3F810C0BCF1000FB3
:1040500004D001232A462046E04705E001CCB847BA
:1040600006F8010B6D1EF9D101206AE77CB5064602
:1040700028480D46006868B1002006F03FFE06E0C3
:104080006A462946304607F00FFE06F0F9FD002883
:10409000F6D17CBD106800901F4C506801902268DA
:1040A000BDF8000032F84C1F0844ADF80000BDF820
:1040B000020091880844ADF80200BDF804001188A0
:1040C0000844ADF80400BDF8060091880844ADF836
:1040D0000600684606F012FE0EE000BF2068BDF83C
:1040E00000106A464184BDF802108184294630469A
:1040F00007F0DAFD06F0C4FD0028EFD1206830F8A3
:10410000221F428D891A01804188C28D891A4180FF
:104110007CBD00009C020020600200202DE9FF4FC2
:104120008DB00020DDF86CA0164600901D460446B8
:104130000246CAF8000008AB03A902A800F078F90B
:1041400018B1002011B0BDE8F08F0898854200DD5D
:104150000546614F0B9561493868407C51F8201045
:10416000049109690691FEF789FA05903868407C48
:10417000FEF7DEFA5A498146884204D059498945FA
:1041800001D0012000E000200A9001CE1A99884752
:104190008346000E079077D0009870BB0D9800EB17
:1041A00004084D480068B0F90800404503DDA0EB65
:1041B0000807804600E000270298049900EB84007D
:1041C00000EB8700CDE900010B990D984218099288
:1041D0000E9B40461946521EFEF75AFF01200090E2
:1041E000059818280ADA0298DDE9052300EB840017
:1041F00000EB8700E91B00F079F812E00A9880B123
:10420000029800EB840000EB87070998A0EB0808F0
:1042100049463868884701C7A8F101005FEA0008ED
:10422000F6D13148C06980B3DDE9020700EB8400B4
:1042300007EB8402CDE902022B4C361F3046E469BD
:104240002B460299A047FF213068B1EB106F02D1D5
:104250000298006804E0029A1268B1EB126F01D173
:10426000039A1060029806F10406001D029003985C
:10427000001D03906D1EE7D10397DAF8000040F0AF
:104280000101CAF8001020E021E0FFE70798FF28AD
:1042900011D0C0F1FF02029850F82410584600F0E7
:1042A0002DFA039941F82400DAF8000040F00101EA
:1042B000CAF8001005E00298039950F8240041F86C
:1042C0002400641C6D1E7FF460AF03983AE70399E5
:1042D00041F824B0E8E700006002002078020020E6
:1042E0009F5300089D5300080C0400202DE9F05F47
:1042F0000C1E16DD5E68014600EB8405082A12DC00
:10430000611E012A26D0022A47D0042A6AD0082A30
:1043100007D1071917F8010DB04745F8040D641EC1
:10432000F8D1BDE8F09F102AFBDC5F693FB122465F
:10433000BC46BDE8F04F02235DF804EB604701EB9B
:10434000440700BF37F8020DB04745F8040D641E5E
:10435000F8D1E6E700EBE10001F0070710F801A94A
:104360008146802020FA07F8B5F104050AEA080022
:10437000C7F10701C840B04745F804093FB14FEA0B
:1043800048604FEA10687F1E641EEFD1C9E719F834
:1043900001A907274FF00108F6E700EBA10001F0A3
:1043A000030710F801A981467900C02020FA01F81E
:1043B0004FF0060BB5F104050AEA0800ABEB470124
:1043C000C840B04745F804093FB14FEA88604FEA5A
:1043D00010687F1E641EEFD1A3E7032719F801A917
:1043E000B846F7E700EB6100012710F801A9A743E1
:1043F0008146B900F02020FA01F84FF0040B2D1F80
:104400000AEA0800ABEB8701C840B04745F8040949
:104410003FB14FEA08704FEA10687F1E641EEFD16B
:104420007FE719F801A901274FF00F08F6E7000010
:104430002DE9F047224C06461F46A0699046894662
:10444000002540B90120A06104F120011D48086049
:10445000084600F0ABF9606930B91B48006860613C
:1044600010B900F023FF606107B138604EB1A06859
:1044700030B960698000FDF7B1FDA06000B9012589
:104480003060B9F1000F0AD0E06830B9606980008F
:10449000FDF7A4FDE06000B90125C9F80000B8F1FE
:1044A000000F0AD0206930B960698000FDF796FDE1
:1044B000206100B90125C8F800002846BDE8F08752
:1044C0000C04002015E100089002002073B5124A88
:1044D00001A900981268904700240090C8B10F49C4
:1044E00000250968C969496959B10A684AB1019941
:1044F00090477CBD6846FFF7E7FA0546FEF7C8F827
:1045000004440198401E0190F4D5284600F032F88A
:10451000044420467CBD0000CC0300206002002043
:1045200073B50D460098002490B10A490968C9691D
:10453000496959B14A684AB1294690477CBD6846E5
:10454000FFF7C2FA20B10A2802D0641CAC42F6DBA5
:1045500020467CBD60020020044AB2F900200260BF
:104560000348B0F90000086070470000A002002076
:10457000A202002038B5002469460094FEF790F8A6
:104580000099814200DD0C1A204638BDB0F9003098
:10459000B1F90020934200DA0280B0F90230B1F99B
:1045A0000220934200DA4280B0F90430B1F90420CD
:1045B000934200DD8280B0F90620B1F906108A42EC
:1045C00000DDC180704770B5B1F90040B2F900302C
:1045D0009C4200DD23460380B1F90250B2F902404B
:1045E000A54200DD2C464480B1F90460B2F90450C4
:1045F000AE4200DA35468580B1F90610B2F90620E0
:10460000914200DB1146C1809D4201DBA14201DAEB
:10461000002070BD012070BD014602480068407C4A
:1046200000F002B8600200202DE9F8430126894617
:10463000044602285DDA304F7A6802B190472E4D69
:104640005FEA090005F1100532D0012803D0B9F165
:10465000020F4ED118E055F8240088B92046FDF726
:10466000B7FE009018B3C0680D21426A68469047B3
:1046700002003ED049460098904755F82400002695
:10468000401C45F8240034E02046FDF7A1FE0090D0
:1046900068B1C0680D21426A68469047040028D07E
:1046A000386800B1804749460098A047002620E0BE
:1046B00055F82400A846012812D12046FDF788FEAF
:1046C000009068B1C0680D21426A684690470500B5
:1046D00006D0386800B1804749460098A8470026B0
:1046E00058F8241009B1012200E00022891A48F884
:1046F00024103046BDE8F883B403002070B5FF23D2
:10470000B3EB116F29D0C3B200F47F4500F47F04EE
:10471000060E5343554354435643C2F1FF00CAB2F9
:1047200002FB003201F47F4303FB005301F47F05D9
:1047300005FB0044090E01FB0065C2F307204FF49E
:104740007F4101EA1322090201EA14214FF07F435D
:10475000104303EA05430843184370BD2DE9F04FA9
:104760000646DDE90CB915460C4600208046584542
:1047700019D20B9F4FF0FF0A01CE08CCAAEB1062B2
:1047800002FB09F2B2FBFAF1CAB21946FFF7B6FF13
:1047900020F07F4001C57F1EEED1099804EB800414
:1047A00008F10100E2E7BDE8F08F000002494A6924
:1047B00042604861704700005402002010B502E0DA
:1047C00000F8011B521E0AB18307F9D1930818D0D3
:1047D00001EB014402F0030204EB042406E010C0E4
:1047E0001B1F10C040F8084B40F8044C042BF6DAAD
:1047F00001E010C05B1E002BFBD102E000F8011BA2
:10480000521E002AFAD110BD10B5830702D520F838
:10481000021B521E530811D001EB0144042B09DB8B
:1048200010C01B1F10C0042B40F8084B40F8044C6C
:10483000F6DA01E010C05B1E002BFBD1D20700D0DE
:10484000018010BD00F58060AFF3008010B500233B
:10485000C0F30B00B0F5006F02DD0123A0F500608E
:10486000B0F5806F01DDC0F5006081110C4C00F0E7
:104870003F00C0F1400234F811005043402A08D0F4
:10488000102906DA04EB4101C2F14002498801FB1C
:10489000020020308009002B00D0404210BD0000F3
:1048A000780A0108FEE70000054A002803D0042129
:1048B0001046FDF7FAB804211046FDF7F8B80000DD
:1048C0000014014001B502E00098401E00900098DD
:1048D0000028F9D108BD000038B50121084604F0D0
:1048E00081FD0121382004F07DFD01211A48FDF7EA
:1048F000A7F803208DF8020010248DF803404FF62E
:10490000FF70ADF8000069461448FDF745F8202017
:10491000ADF80000124D69462846FDF73DF84021EC
:10492000ADF8001069462846FDF736F8ADF80040AE
:1049300069462846FDF730F88021ADF80010694639
:104940002846FDF729F80420ADF80000694605481F
:10495000FDF722F838BD000000023000000C0140D5
:10496000001001400014014070B50446072C41D8E6
:10497000214D2C70E2074FF0F0004FF4A07136D0BB
:104980006980A880362000F0BBF9082040EA441076
:1049900000F0C8F92A2000F0B3F9002000F0C2F9B5
:1049A000002000F0BFF96888401EC0F3072000F027
:1049B000B9F9A878401EC0B200F0B4F92B2000F07D
:1049C0009FF9002000F0AEF9002000F0ABF9A888B4
:1049D000401EC0F3072000F0A5F92879401EC0B2A0
:1049E00000F0A0F9BDE870402C2000F089B9688083
:1049F000A980C7E770BD00006800002010B5FFF770
:104A00006BFF0120FFF750FF00F008F80248007824
:104A1000BDE81040FFF7A8BF6800002010B54FF6B2
:104A2000FF742046FFF74EFFCF2000F069F9002009
:104A300000F078F9812000F075F9302000F072F96B
:104A40002046FFF73FFFED2000F05AF9642000F008
:104A500069F9032000F066F9122000F063F9812063
:104A600000F060F92046FFF72DFFE82000F048F93C
:104A7000852000F057F9102000F054F9782000F05C
:104A800051F92046FFF71EFFCB2000F039F93920FD
:104A900000F048F92C2000F045F9002000F042F920
:104AA000342000F03FF9022000F03CF92046FFF7E7
:104AB00009FFF72000F024F9202000F033F9204608
:104AC000FFF700FFEA2000F01BF9002000F02AF9B0
:104AD000002000F027F92046FFF7F4FEB12000F097
:104AE0000FF9002000F01EF91B2000F01BF92046F2
:104AF000FFF7E8FEB62000F003F90A2000F012F9F3
:104B0000A22000F00FF92046FFF7DCFEC02000F0E5
:104B1000F7F8352000F006F92046FFF7D3FEC12054
:104B200000F0EEF8112000F0FDF8C52000F0E8F8E4
:104B3000452000F0F7F8452000F0F4F8C72000F019
:104B4000DFF8A22000F0EEF8F22000F0D9F8002003
:104B500000F0E8F8262000F0D3F8012000F0E2F899
:104B60002046FFF7AFFEE02000F0CAF80F2000F06B
:104B7000D9F8262000F0D6F8242000F0D3F80B2036
:104B800000F0D0F80E2000F0CDF8092000F0CAF8AF
:104B9000542000F0C7F8A82000F0C4F8462000F028
:104BA000C1F80C2000F0BEF8172000F0BBF8092077
:104BB00000F0B8F80F2000F0B5F8072000F0B2F8C8
:104BC000002000F0AFF8E12000F09AF8002000F09B
:104BD000A9F8192000F0A6F81B2000F0A3F8042083
:104BE00000F0A0F8102000F09DF8072000F09AF8DF
:104BF0002A2000F097F8472000F094F8392000F0C0
:104C000091F8032000F08EF8062000F08BF80620C3
:104C100000F088F8302000F085F8382000F082F8A5
:104C20000F2000F07FF82046FFF74CFE362000F002
:104C300067F8C82000F076F82046FFF743FE2A20E8
:104C400000F05EF8002000F06DF8002000F06AF837
:104C5000002000F067F8EF2000F064F82046FFF72E
:104C600031FE2B2000F04CF8002000F05BF8002013
:104C700000F058F8012000F055F83F2000F052F8FD
:104C80002046FFF71FFE3A2000F03AF8552000F0CA
:104C900049F8112000F034F80548FFF713FE2046CC
:104CA000FFF710FEBDE81040292000F029B80000F1
:104CB000FCBF020070B5104C4FF088302060251DFD
:104CC00028600D4E00200C3630600C4980200861B1
:104CD0004020086110234B6120224A61281D006892
:104CE00080B20A610B614FF03331216029604FF6C9
:104CF000FF71316070BD0000000C014000100140E8
:104D0000064910224A6180234B6120230B61044B2A
:104D100018604020486108610A6170470010014036
:104D20000C0C0140064910224A6180230B612023AC
:104D30000B61044B18604020486108610A617047AC
:104D4000001001400C0C014008B50121042004F0C2
:104D500049FB0120ADF8000028208DF803006946CA
:104D60000148FCF719FE08BD0008014008B5012103
:104D7000102004F037FB4FF40050ADF8000028205D
:104D80008DF8030069460248FCF706FE08BD0000E6
:104D90000010014010B52823F02219460020FDF72D
:104DA000C7FB3C22002328211046FDF7C1FB7822D7
:104DB000002328211046FDF7BBFBB4220023282145
:104DC0001046FDF7B5FB142250210AA0FDF7A8FB01
:104DD0001422114608A0FDF7A3FB1422912107A07D
:104DE000FDF79EFB1422BDE81040C82104A0FDF78A
:104DF00097BB00003C2D2D002D2D3E00757000004E
:104E0000646F776E0000000010B5FFF79DFFBDE8EE
:104E10001040FFF7ABBF2DE9FE4307468846144616
:104E20001D46002641463846FCF738FEB146A042F2
:104E300010D102A8CDE9009000221423114610469B
:104E400001F062FF41463846FCF728FEA04201D13E
:104E500001212970A04205D02878012802D101261D
:104E600085F800903046BDE8FE83000002490A68DC
:104E70000860104670470000480400200449054AB5
:104E80000968497C52F8211009690968084700003F
:104E900060020020780200202DE9F04F05468DB019
:104EA0007B48DDF860901A9C00681E4617464FF05C
:104EB000000A78B11B9B199ACDF808900593CDE9AB
:104EC0000324DDE91623CDE90023046833463A467E
:104ED000284680E0DDE9160201EB060805EB070C29
:104EE0001043A8F10108ACF1010C012806D0C9F16A
:104EF00008000590002002910990C6E0654802680C
:104F0000B2F90A30581A002806DD361A002E63DD81
:104F10001946199B00FB0344B2F90E00A8EB0000F0
:104F2000002802DD361A002E56DDB2F90C00ACEB7B
:104F30000000002800DD3F1AB2F908300020AB4223
:104F400035DD581B3F1A4B46B9F1080F26D006DC59
:104F5000012B0BD0022B11D0042B28D116E0102BE3
:104F60001ED0182B1FD0202B21D11CE020F00703CE
:104F700004EBE0041D4400F0070018E020F00303F8
:104F800004EBA0041D4400F0030010E020F0010336
:104F900004EB60041D4400F0010008E0044404E058
:104FA00004EB400401E004EB800405440020002FE2
:104FB00012DD1B9BDDF864C0CDE90403CDE9006977
:104FC000CDE902C4527C34483B4650F82200C26806
:104FD00054680A462946A0470DB0BDE8F08F1799DE
:104FE000029808440C902B49401E00900A68B2F9C0
:104FF0000A30834241DCB2F90E10029881423CDB58
:105000004FF0000BD84603950A9434E0BBF1000F33
:1050100005D10A984FF0080B10F801AB0A900599DA
:10502000ABEB090B3AFA01F00AFA09F101F0FF0AB9
:1050300004D118490968097C890716D415490968FB
:10504000C96B0A680B921B9A0AB152F820000860DB
:1050500016990398009B4218521E029900F0A8F876
:105060000C490B980968C96B08600399169808F1F8
:10507000010808440390B845C8DB0998401C099012
:105080000C980290199804440998B042A7DBA3E752
:105090009C0200206002002078020020F0B40C4640
:1050A00012490968B1F90A30A3421CDCB1F90E308B
:1050B000A34218DBB1F90830834200DD1846B1F98C
:1050C0000C30934200DA1A4682420CDB4B7C0849D2
:1050D00051F8235013462246E9688E680146284657
:1050E000B446F0BC6047F0BC70470000600200208E
:1050F000780200200A46174930B40968B1F90A302D
:10510000934225DCB1F90E30934221DBB1F908302E
:1051100083421DDCB1F90C30834219DB0B7C0E4C51
:10512000DB0709D0497C54F82130D968CC690146A5
:10513000A44630BC18466047CB6B497C1B6854F8CA
:105140002140E1688D6901462046AC4630BC60478D
:1051500030BC70476002002078020020124B30B44F
:105160001B68B3F9084084421CDCB3F90C4084424C
:1051700018DBB3F90A408C4200DD2146B3F90E403A
:10518000944200DA22468A420CDB5C7C074B53F8DF
:105190002440E368DD6813460A4601462046AC46D3
:1051A00030BC604730BC70476002002078020020AD
:1051B00038B5134C2468B4F90850854200DD284600
:1051C000B4F90C50954200DA2A46824217DBB4F952
:1051D0000A508D4200DD2946B4F90E509D4200DA96
:1051E0002B468B420BDB0093647C064B53F8244028
:1051F000E3681D6913460A4601462046A84738BDA4
:105200006002002078020020082108F033BC0C2145
:1052100008F030BC0D2108F02DBC00000248092127
:105220000068407C08F026BC60020020092108F0DC
:1052300021BC70B500252C462046FDF7C9F800B109
:105240006D1C641C022CF7DB284670BD0248006808
:10525000407C00F003B800006002002010B5FDF7AC
:10526000B7F8002805D0C168CA6ABDE8104002211D
:10527000104710BDF8B515460E460124FDF7A8F8F5
:10528000009058B1C0680421426A68469047030004
:1052900004D02A4631460098984700242046F8BD9D
:1052A0000E2108F0E7BB032108F0E4BB032008F05F
:1052B00080BC042108F0DEBB024801210068407C6C
:1052C00008F0D8BB60020020014800687047000069
:1052D000E0020020012108F0CDBB012008F069BCEC
:1052E000024802210068407C08F0C4BB6002002034
:1052F0000148406870470000E0020020022108F0E9
:10530000B9BB022008F055BCAFF300802DE9F04195
:10531000002809D0876837B10D4E716819B104684B
:10532000B4F5807F02DD0020BDE8F0813068844262
:1053300000DD0446002507E057F82500FFF79EFD35
:10534000716841F825006D1CA542F5DB7068EBE73C
:105350003C0300200449054A0968497C52F82110A1
:1053600009694968084700006002002078020020AF
:1053700010B5084A084B00F01F01C0F34514C0F3F4
:10538000C420515C1B5D105C01EB032101EB00406C
:1053900010BD0000601201088012010870477047BC
:1053A00010B50A4C606860B920688000FCF716FEF2
:1053B000606040B104F10801054808600846FFF745
:1053C000F5F9002010BD012010BD00003C030020B5
:1053D000CDE000082DE9F047FFF72BFF074600243A
:1053E000DFF860802AE02046FCF7F2FF28B3D8F807
:1053F000000090F8119044742046FFF705FF08283C
:1054000017DC1148114950F824000069884210D077
:105410002046FFF70BFF0646002508E0E8B2FFF73D
:1054200099FF0246E9B2204600F054F96D1CB542DE
:10543000F4DBD8F8001081F81190641CBC42D2DB78
:10544000BDE8F087600200207802002050150108B6
:105450002DE9FF4F83B01646DDE910408B46C0684A
:105460004769426A7AB1012111A8904705000AD024
:105470000698CDE9000433465A4603991198A84787
:1054800007B0BDE8F08F57480068407CFDF7F6F89C
:105490008246082801DC012005E0BAF1100F01DC8A
:1054A000022000E004208046002596E04046B8F146
:1054B000010F05D0022871D0B8F1040F25D17CE08E
:1054C000BAF1090F21D2DFE80AF08605213F3F59E2
:1054D00059595900039815E001465A461198B847A2
:1054E000C5F1070188404FF67F722178EA401140EC
:1054F00001436D1C217004EBE50425F00700054114
:1055000009F101008146B042E6DD64E0039817E04E
:1055100001465A461198B8470621A1EB450188403B
:105520006B004FF63F722178DA40114001436D1C49
:10553000217004EBA50425F00300054109F10100E9
:105540008146B042E4DD46E0039813E001465A4646
:105550001198B8470421A1EB850188402178AB0060
:105560000F229A401140014321702C4485F001051F
:1055700009F101008146B042E8DD2CE0DDF80C9035
:1055800007E001465A461198B847207009F1010911
:1055900044444846B145F4DD1DE0FFE7DDF80C90DA
:1055A00007E001465A461198B847208009F10109E1
:1055B00044444846B145F4DD0DE0DDF80C9007E0C9
:1055C00001465A461198B847206009F10109444440
:1055D0004846B145F4DD0BF1010B06998B457FF789
:1055E00065AF4DE76002002010B50D4C0D492068F5
:1055F000407C51F8200048B1C16811B10968042904
:1056000001D00068F7E708B1FCF7CAFE2068002166
:10561000016600F108014161BDE8104000F02EB8BC
:1056200060020020780200200149096849680847A3
:1056300038030020044909680A7C520701D5C96B68
:1056400000E0896B08607047600200207CB5094C5F
:1056500005462068417C084850F82100C1680A6B63
:105660006946904720686A4629460830FEF7ABFF36
:105670007CBD000060020020780200200448016820
:1056800004484A7C083150F82200C268126B104767
:105690006002002078020020014909680968084773
:1056A00038030020044909680A7C520701D5896B38
:1056B00000E0C96B0860704760020020014AC2E93F
:1056C00000017047E0020020014909688968084725
:1056D00038030020F8B515460E460124FCF778FE85
:1056E000009058B1C0681021426A68469047030094
:1056F00004D02A4631460098984700242046F8BD39
:10570000F8B515460E460124FCF762FE009058B12C
:10571000C0680321426A68469047030004D02A46C5
:1057200031460098984700242046F8BDF8B5154644
:105730000E460124FCF74CFE009058B1C0680B21C6
:10574000426A68469047030004D02A4631460098D2
:10575000984700242046F8BDF8B515460E460124AA
:10576000FCF736FE009058B1C0680A21426A6846CC
:105770009047030004D02A463146009898470024F9
:105780002046F8BD10B5074C2068006BFFF776FB8C
:10579000FFF788FF2068406BFFF770FBBDE8104003
:1057A000FFF748BF6002002030B5A1B014211CA84B
:1057B000FAF75FFD682102A8FAF75BFD00231A469D
:1057C00026492748FCF792FD04464FF4A0752A4667
:1057D000F0210020FFF7AAFF2A46F0210020FFF762
:1057E000BBFF00211D911C9103211E9102212091DC
:1057F0001CA92046FCF75DF91A490A911A490B9138
:105800001A490D911A4811901A4B1B4A02A92046B9
:10581000FCF76FF90020FFF7FAFC04460020FFF7C1
:10582000F9FC44EA40040020FFF73AFD44EA800016
:10583000FEF7CAF8D5200021009040F61373EF223E
:105840000846FDF7BDFF40F6DA600090BD236A1EF2
:1058500000210120FDF7B4FF21B030BDBC0A0108D2
:10586000D40A01085D5B0008415B0008455B000845
:10587000295B0008911B0008251B000810B50129B1
:1058800002D04FF0FF3010BDFFF7B8F805F07CFEF6
:10589000002010BD2DE9FF4F8DB01746674ADDF897
:1058A00070901E9E209812681D4600248AB11D9B90
:1058B0001F98CDE90293CDE90460DDE91A03CDE933
:1058C000000314682B463A460D98A04711B0BDE876
:1058D000F08F0D9A01EB050802EB070CDDE91A23A6
:1058E0001A43A8F10108ACF1010C012A06D0C9F154
:1058F00008004FF0000B029105909CE0504A12689E
:10590000B2F90A40631A002B06DDED1A002DDDDD29
:1059100021461D9C03FB0466B2F90E30A8EB03037D
:10592000002B02DDED1A002DD0DDB2F90C30ACEB0E
:105930000303002B00DDFF1A0D9B1C1AB2F908307F
:10594000A3420DDDA3EB040C0CEB0003181A20F0AE
:1059500007000444A7EB0C0706EBE30603F007007F
:10596000002FB3DDDDF874C01F9BCDE902C6CDE981
:105970000403CDE90059527C32483B4650F82200DE
:10598000C26855680A462146A8479FE71B990298B6
:1059900008440C902A49401E00900A68B2F90A3067
:1059A000834242DCB2F90E10029881423DDB4FF097
:1059B000000A0D980A96D046039034E0BAF1000F21
:1059C00005D10A984FF0080A10F8014B0A90059982
:1059D000AAEB090A34FA01F004FA09F4E4B204D19A
:1059E00017490968097C890717D415490968C96BE3
:1059F0000A680B921F9A0AB152F8200008600399B6
:105A00001A98009B0A18DDE90210521EFFF7D0FB1E
:105A10000B490B980968C96B086003991A9808F13B
:105A2000010808440390B845C8DB0C9802901D9803
:105A30000BF1010B0644AB45A8DB47E79C020020B5
:105A40006002002078020020002818D0410817D0FA
:105A5000810817D0C10817D0010917D0410917D004
:105A6000010A17D0410A17D0010B15D0C10B13D072
:105A7000010C11D0810C11D0000E11D020207047E4
:105A800001207047022070470320704704207047B0
:105A9000052070470820704710207047122070477B
:105AA0001820704700B50022FFF7CEFF012804D070
:105AB000811E062903D808220BE0012209E0A0F18B
:105AC0000901072901D8102203E011380F2800D856
:105AD0002022104600BD000038B50121102003F03F
